{
  "contractName": "EvidenceManagement",
  "abi": [
    {
      "anonymous": false,
      "inputs": [
        {
          "indexed": false,
          "internalType": "string",
          "name": "evidenceId",
          "type": "string"
        },
        {
          "indexed": false,
          "internalType": "address",
          "name": "accessedBy",
          "type": "address"
        },
        {
          "indexed": false,
          "internalType": "uint256",
          "name": "timestamp",
          "type": "uint256"
        }
      ],
      "name": "EvidenceAccessed",
      "type": "event"
    },
    {
      "anonymous": false,
      "inputs": [
        {
          "indexed": false,
          "internalType": "string",
          "name": "evidenceId",
          "type": "string"
        },
        {
          "indexed": false,
          "internalType": "string",
          "name": "ipfsHash",
          "type": "string"
        },
        {
          "indexed": false,
          "internalType": "string",
          "name": "officerName",
          "type": "string"
        },
        {
          "indexed": false,
          "internalType": "uint256",
          "name": "timestamp",
          "type": "uint256"
        }
      ],
      "name": "EvidenceAdded",
      "type": "event"
    },
    {
      "anonymous": false,
      "inputs": [
        {
          "indexed": false,
          "internalType": "address",
          "name": "userAddress",
          "type": "address"
        },
        {
          "indexed": false,
          "internalType": "string",
          "name": "role",
          "type": "string"
        },
        {
          "indexed": false,
          "internalType": "string",
          "name": "name",
          "type": "string"
        }
      ],
      "name": "UserRegistered",
      "type": "event"
    },
    {
      "inputs": [
        {
          "internalType": "uint256",
          "name": "",
          "type": "uint256"
        }
      ],
      "name": "evidenceIds",
      "outputs": [
        {
          "internalType": "string",
          "name": "",
          "type": "string"
        }
      ],
      "stateMutability": "view",
      "type": "function",
      "constant": true
    },
    {
      "inputs": [
        {
          "internalType": "string",
          "name": "",
          "type": "string"
        }
      ],
      "name": "evidenceRecords",
      "outputs": [
        {
          "internalType": "string",
          "name": "ipfsHash",
          "type": "string"
        },
        {
          "internalType": "string",
          "name": "caseNumber",
          "type": "string"
        },
        {
          "internalType": "string",
          "name": "location",
          "type": "string"
        },
        {
          "internalType": "string",
          "name": "crimeDescription",
          "type": "string"
        },
        {
          "internalType": "string",
          "name": "evidenceType",
          "type": "string"
        },
        {
          "internalType": "string",
          "name": "officerName",
          "type": "string"
        },
        {
          "internalType": "uint256",
          "name": "timestamp",
          "type": "uint256"
        },
        {
          "internalType": "bool",
          "name": "exists",
          "type": "bool"
        }
      ],
      "stateMutability": "view",
      "type": "function",
      "constant": true
    },
    {
      "inputs": [
        {
          "internalType": "address",
          "name": "",
          "type": "address"
        }
      ],
      "name": "registeredUsers",
      "outputs": [
        {
          "internalType": "bool",
          "name": "",
          "type": "bool"
        }
      ],
      "stateMutability": "view",
      "type": "function",
      "constant": true
    },
    {
      "inputs": [
        {
          "internalType": "address",
          "name": "",
          "type": "address"
        }
      ],
      "name": "userNames",
      "outputs": [
        {
          "internalType": "string",
          "name": "",
          "type": "string"
        }
      ],
      "stateMutability": "view",
      "type": "function",
      "constant": true
    },
    {
      "inputs": [
        {
          "internalType": "address",
          "name": "",
          "type": "address"
        }
      ],
      "name": "userRoles",
      "outputs": [
        {
          "internalType": "string",
          "name": "",
          "type": "string"
        }
      ],
      "stateMutability": "view",
      "type": "function",
      "constant": true
    },
    {
      "inputs": [
        {
          "internalType": "string",
          "name": "_name",
          "type": "string"
        },
        {
          "internalType": "string",
          "name": "_role",
          "type": "string"
        }
      ],
      "name": "registerUser",
      "outputs": [],
      "stateMutability": "nonpayable",
      "type": "function"
    },
    {
      "inputs": [
        {
          "internalType": "string",
          "name": "_evidenceId",
          "type": "string"
        },
        {
          "internalType": "string",
          "name": "_ipfsHash",
          "type": "string"
        },
        {
          "internalType": "string",
          "name": "_caseNumber",
          "type": "string"
        },
        {
          "internalType": "string",
          "name": "_location",
          "type": "string"
        },
        {
          "internalType": "string",
          "name": "_crimeDescription",
          "type": "string"
        },
        {
          "internalType": "string",
          "name": "_evidenceType",
          "type": "string"
        }
      ],
      "name": "addEvidence",
      "outputs": [],
      "stateMutability": "nonpayable",
      "type": "function"
    },
    {
      "inputs": [
        {
          "internalType": "string",
          "name": "_evidenceId",
          "type": "string"
        }
      ],
      "name": "getEvidence",
      "outputs": [
        {
          "internalType": "string",
          "name": "ipfsHash",
          "type": "string"
        },
        {
          "internalType": "string",
          "name": "caseNumber",
          "type": "string"
        },
        {
          "internalType": "string",
          "name": "location",
          "type": "string"
        },
        {
          "internalType": "string",
          "name": "crimeDescription",
          "type": "string"
        },
        {
          "internalType": "string",
          "name": "evidenceType",
          "type": "string"
        },
        {
          "internalType": "string",
          "name": "officerName",
          "type": "string"
        },
        {
          "internalType": "uint256",
          "name": "timestamp",
          "type": "uint256"
        }
      ],
      "stateMutability": "nonpayable",
      "type": "function"
    },
    {
      "inputs": [],
      "name": "getEvidenceCount",
      "outputs": [
        {
          "internalType": "uint256",
          "name": "",
          "type": "uint256"
        }
      ],
      "stateMutability": "view",
      "type": "function",
      "constant": true
    },
    {
      "inputs": [
        {
          "internalType": "address",
          "name": "_userAddress",
          "type": "address"
        }
      ],
      "name": "isUserRegistered",
      "outputs": [
        {
          "internalType": "bool",
          "name": "",
          "type": "bool"
        }
      ],
      "stateMutability": "view",
      "type": "function",
      "constant": true
    },
    {
      "inputs": [
        {
          "internalType": "address",
          "name": "_userAddress",
          "type": "address"
        }
      ],
      "name": "getUserRole",
      "outputs": [
        {
          "internalType": "string",
          "name": "",
          "type": "string"
        }
      ],
      "stateMutability": "view",
      "type": "function",
      "constant": true
    },
    {
      "inputs": [
        {
          "internalType": "address",
          "name": "_userAddress",
          "type": "address"
        }
      ],
      "name": "getUserName",
      "outputs": [
        {
          "internalType": "string",
          "name": "",
          "type": "string"
        }
      ],
      "stateMutability": "view",
      "type": "function",
      "constant": true
    }
  ],
  "bytecode": "0x608060405234801561001057600080fd5b50611942806100206000396000f3fe608060405234801561001057600080fd5b50600436106100b45760003560e01c806374d5e1001161007157806374d5e1001461018c5780637f2816351461019f578063b16c6ee7146101b2578063b8d44487146101d8578063d84f55ee146101e9578063eedaaa40146101fc57600080fd5b80630e50cee5146100b9578063163f7522146100f15780631d2e4afd1461011d578063278208511461013257806339ed370e1461015257806347549cb714610179575b600080fd5b6100dc6100c73660046112e6565b60046020526000908152604090205460ff1681565b60405190151581526020015b60405180910390f35b6100dc6100ff3660046112e6565b6001600160a01b031660009081526004602052604090205460ff1690565b61013061012b3660046113b9565b61020f565b005b6101456101403660046112e6565b610412565b6040516100e89190611479565b61016561016036600461148c565b6104f5565b6040516100e89897969594939291906114c9565b61013061018736600461155e565b610874565b61014561019a3660046112e6565b610c3e565b6101456101ad3660046112e6565b610cd8565b6101c56101c036600461148c565b610cf1565b6040516100e89796959493929190611653565b6001546040519081526020016100e8565b6101456101f73660046112e6565b6111c4565b61014561020a3660046116dd565b611222565b3360009081526004602052604090205460ff16156102745760405162461bcd60e51b815260206004820152601760248201527f5573657220616c7265616479207265676973746572656400000000000000000060448201526064015b60405180910390fd5b60405165506f6c69636560d01b602082015260260160405160208183030381529060405280519060200120816040516020016102b091906116f6565b60405160208183030381529060405280519060200120148061032057506040516410dbdd5c9d60da1b6020820152602501604051602081830303815290604052805190602001208160405160200161030891906116f6565b60405160208183030381529060405280519060200120145b6103785760405162461bcd60e51b815260206004820152602360248201527f526f6c65206d7573742062652065697468657220506f6c696365206f7220436f6044820152621d5c9d60ea1b606482015260840161026b565b33600090815260026020908152604090912082516103989284019061124d565b5033600090815260036020908152604090912083516103b99285019061124d565b503360008181526004602052604090819020805460ff19166001179055517f92822564bab8864c3a47b34e8d23fbce5c46234eb5da261f94087b995ac0f33b916104069184908690611712565b60405180910390a15050565b6001600160a01b03811660009081526004602052604090205460609060ff1661044d5760405162461bcd60e51b815260040161026b90611752565b6001600160a01b038216600090815260026020526040902080546104709061177f565b80601f016020809104026020016040519081016040528092919081815260200182805461049c9061177f565b80156104e95780601f106104be576101008083540402835291602001916104e9565b820191906000526020600020905b8154815290600101906020018083116104cc57829003601f168201915b50505050509050919050565b805160208183018101805160008252928201919093012091528054819061051b9061177f565b80601f01602080910402602001604051908101604052809291908181526020018280546105479061177f565b80156105945780601f1061056957610100808354040283529160200191610594565b820191906000526020600020905b81548152906001019060200180831161057757829003601f168201915b5050505050908060010180546105a99061177f565b80601f01602080910402602001604051908101604052809291908181526020018280546105d59061177f565b80156106225780601f106105f757610100808354040283529160200191610622565b820191906000526020600020905b81548152906001019060200180831161060557829003601f168201915b5050505050908060020180546106379061177f565b80601f01602080910402602001604051908101604052809291908181526020018280546106639061177f565b80156106b05780601f10610685576101008083540402835291602001916106b0565b820191906000526020600020905b81548152906001019060200180831161069357829003601f168201915b5050505050908060030180546106c59061177f565b80601f01602080910402602001604051908101604052809291908181526020018280546106f19061177f565b801561073e5780601f106107135761010080835404028352916020019161073e565b820191906000526020600020905b81548152906001019060200180831161072157829003601f168201915b5050505050908060040180546107539061177f565b80601f016020809104026020016040519081016040528092919081815260200182805461077f9061177f565b80156107cc5780601f106107a1576101008083540402835291602001916107cc565b820191906000526020600020905b8154815290600101906020018083116107af57829003601f168201915b5050505050908060050180546107e19061177f565b80601f016020809104026020016040519081016040528092919081815260200182805461080d9061177f565b801561085a5780601f1061082f5761010080835404028352916020019161085a565b820191906000526020600020905b81548152906001019060200180831161083d57829003601f168201915b50505050600683015460079093015491929160ff16905088565b60405165506f6c69636560d01b602082015260260160408051601f198184030181528282528051602091820120336000908152600283529290922091926108bc9291016117b9565b604051602081830303815290604052805190602001201461092d5760405162461bcd60e51b815260206004820152602560248201527f4f6e6c7920706f6c696365206f666669636572732063616e206164642065766960448201526464656e636560d81b606482015260840161026b565b3360009081526004602052604090205460ff1661095c5760405162461bcd60e51b815260040161026b90611752565b60008660405161096c91906116f6565b9081526040519081900360200190206007015460ff16156109cf5760405162461bcd60e51b815260206004820152601a60248201527f45766964656e636520494420616c726561647920657869737473000000000000604482015260640161026b565b600060405180610100016040528087815260200186815260200185815260200184815260200183815260200160036000336001600160a01b03166001600160a01b031681526020019081526020016000208054610a2b9061177f565b80601f0160208091040260200160405190810160405280929190818152602001828054610a579061177f565b8015610aa45780601f10610a7957610100808354040283529160200191610aa4565b820191906000526020600020905b815481529060010190602001808311610a8757829003601f168201915b5050505050815260200142815260200160011515815250905080600088604051610ace91906116f6565b90815260200160405180910390206000820151816000019080519060200190610af892919061124d565b506020828101518051610b11926001850192019061124d565b5060408201518051610b2d91600284019160209091019061124d565b5060608201518051610b4991600384019160209091019061124d565b5060808201518051610b6591600484019160209091019061124d565b5060a08201518051610b8191600584019160209091019061124d565b5060c0820151600682015560e0909101516007909101805460ff19169115159190911790556001805480820182556000919091528751610be8917fb10e2d527612073b26eecdfd717e6a320cf44b4afac2b0732d9fcbe2b7fa0cf6019060208a019061124d565b50336000908152600360205260409081902090517f2b9f219cca6f5bde51b2679bfe7ee2d1b09778983bf8b80fb8f1d04e180f1b8791610c2d918a918a91429061182b565b60405180910390a150505050505050565b60026020526000908152604090208054610c579061177f565b80601f0160208091040260200160405190810160405280929190818152602001828054610c839061177f565b8015610cd05780601f10610ca557610100808354040283529160200191610cd0565b820191906000526020600020905b815481529060010190602001808311610cb357829003601f168201915b505050505081565b60036020526000908152604090208054610c579061177f565b336000908152600460205260408120546060918291829182918291829160ff16610d2d5760405162461bcd60e51b815260040161026b90611752565b600088604051610d3d91906116f6565b9081526040519081900360200190206007015460ff16610d9f5760405162461bcd60e51b815260206004820152601760248201527f45766964656e636520646f6573206e6f74206578697374000000000000000000604482015260640161026b565b60008089604051610db091906116f6565b908152602001604051809103902060405180610100016040529081600082018054610dda9061177f565b80601f0160208091040260200160405190810160405280929190818152602001828054610e069061177f565b8015610e535780601f10610e2857610100808354040283529160200191610e53565b820191906000526020600020905b815481529060010190602001808311610e3657829003601f168201915b50505050508152602001600182018054610e6c9061177f565b80601f0160208091040260200160405190810160405280929190818152602001828054610e989061177f565b8015610ee55780601f10610eba57610100808354040283529160200191610ee5565b820191906000526020600020905b815481529060010190602001808311610ec857829003601f168201915b50505050508152602001600282018054610efe9061177f565b80601f0160208091040260200160405190810160405280929190818152602001828054610f2a9061177f565b8015610f775780601f10610f4c57610100808354040283529160200191610f77565b820191906000526020600020905b815481529060010190602001808311610f5a57829003601f168201915b50505050508152602001600382018054610f909061177f565b80601f0160208091040260200160405190810160405280929190818152602001828054610fbc9061177f565b80156110095780601f10610fde57610100808354040283529160200191611009565b820191906000526020600020905b815481529060010190602001808311610fec57829003601f168201915b505050505081526020016004820180546110229061177f565b80601f016020809104026020016040519081016040528092919081815260200182805461104e9061177f565b801561109b5780601f106110705761010080835404028352916020019161109b565b820191906000526020600020905b81548152906001019060200180831161107e57829003601f168201915b505050505081526020016005820180546110b49061177f565b80601f01602080910402602001604051908101604052809291908181526020018280546110e09061177f565b801561112d5780601f106111025761010080835404028352916020019161112d565b820191906000526020600020905b81548152906001019060200180831161111057829003601f168201915b50505091835250506006820154602082015260079091015460ff161515604091820152519091507fb7c08c804f205067657d4dc6700642eac4cabb5188987d54d96b31e304232e4790611185908b90339042906118de565b60405180910390a18051602082015160408301516060840151608085015160a086015160c090960151949e939d50919b50995097509195509350915050565b6001600160a01b03811660009081526004602052604090205460609060ff166111ff5760405162461bcd60e51b815260040161026b90611752565b6001600160a01b038216600090815260036020526040902080546104709061177f565b6001818154811061123257600080fd5b906000526020600020016000915090508054610c579061177f565b8280546112599061177f565b90600052602060002090601f01602090048101928261127b57600085556112c1565b82601f1061129457805160ff19168380011785556112c1565b828001600101855582156112c1579182015b828111156112c15782518255916020019190600101906112a6565b506112cd9291506112d1565b5090565b5b808211156112cd57600081556001016112d2565b6000602082840312156112f857600080fd5b81356001600160a01b038116811461130f57600080fd5b9392505050565b634e487b7160e01b600052604160045260246000fd5b600082601f83011261133d57600080fd5b813567ffffffffffffffff8082111561135857611358611316565b604051601f8301601f19908116603f0116810190828211818310171561138057611380611316565b8160405283815286602085880101111561139957600080fd5b836020870160208301376000602085830101528094505050505092915050565b600080604083850312156113cc57600080fd5b823567ffffffffffffffff808211156113e457600080fd5b6113f08683870161132c565b9350602085013591508082111561140657600080fd5b506114138582860161132c565b9150509250929050565b60005b83811015611438578181015183820152602001611420565b83811115611447576000848401525b50505050565b6000815180845261146581602086016020860161141d565b601f01601f19169290920160200192915050565b60208152600061130f602083018461144d565b60006020828403121561149e57600080fd5b813567ffffffffffffffff8111156114b557600080fd5b6114c18482850161132c565b949350505050565b60006101008083526114dd8184018c61144d565b905082810360208401526114f1818b61144d565b90508281036040840152611505818a61144d565b90508281036060840152611519818961144d565b9050828103608084015261152d818861144d565b905082810360a0840152611541818761144d565b60c0840195909552505090151560e0909101529695505050505050565b60008060008060008060c0878903121561157757600080fd5b863567ffffffffffffffff8082111561158f57600080fd5b61159b8a838b0161132c565b975060208901359150808211156115b157600080fd5b6115bd8a838b0161132c565b965060408901359150808211156115d357600080fd5b6115df8a838b0161132c565b955060608901359150808211156115f557600080fd5b6116018a838b0161132c565b9450608089013591508082111561161757600080fd5b6116238a838b0161132c565b935060a089013591508082111561163957600080fd5b5061164689828a0161132c565b9150509295509295509295565b60e08152600061166660e083018a61144d565b8281036020840152611678818a61144d565b9050828103604084015261168c818961144d565b905082810360608401526116a0818861144d565b905082810360808401526116b4818761144d565b905082810360a08401526116c8818661144d565b9150508260c083015298975050505050505050565b6000602082840312156116ef57600080fd5b5035919050565b6000825161170881846020870161141d565b9190910192915050565b6001600160a01b03841681526060602082018190526000906117369083018561144d565b8281036040840152611748818561144d565b9695505050505050565b602080825260139082015272155cd95c881b9bdd081c9959da5cdd195c9959606a1b604082015260600190565b600181811c9082168061179357607f821691505b6020821081036117b357634e487b7160e01b600052602260045260246000fd5b50919050565b60008083546117c78161177f565b600182811680156117df57600181146117f05761181f565b60ff1984168752828701945061181f565b8760005260208060002060005b858110156118165781548a8201529084019082016117fd565b50505082870194505b50929695505050505050565b60808152600061183e608083018761144d565b602083820381850152611851828861144d565b91508382036040850152600086546118688161177f565b808552600182811680156118835760018114611897576118c5565b60ff198416878701526040870194506118c5565b8a6000528560002060005b848110156118bd5781548982018901529083019087016118a2565b880187019550505b5050505080935050505082606083015295945050505050565b6060815260006118f1606083018661144d565b6001600160a01b03949094166020830152506040015291905056fea2646970667358221220a15b1204490fbed54d88eb7f9959a2069a8c5a715cd39250f7c9dcf5f103421464736f6c634300080d0033",
  "immutableReferences": {},
  "source": "// SPDX-License-Identifier: MIT\npragma solidity ^0.8.0;\n\ncontract EvidenceManagement {\n    // Struct for evidence details\n    struct Evidence {\n        string ipfsHash;        // IPFS hash of the evidence file\n        string caseNumber;      // Unique case identifier\n        string location;        // Location where evidence was collected\n        string crimeDescription; // Brief description of the crime\n        string evidenceType;    // Type of evidence (audio, video, document, etc.)\n        string officerName;     // Name of the officer who uploaded the evidence\n        uint256 timestamp;      // Timestamp when evidence was added\n        bool exists;            // Flag to check if evidence exists\n    }\n    \n    // Mapping from evidence ID to Evidence struct\n    mapping(string => Evidence) public evidenceRecords;\n    \n    // List of all evidence IDs for iteration\n    string[] public evidenceIds;\n    \n    // Authorized users mapping (address => role)\n    mapping(address => string) public userRoles;\n    mapping(address => string) public userNames;\n    mapping(address => bool) public registeredUsers;\n    \n    // Events\n    event EvidenceAdded(string evidenceId, string ipfsHash, string officerName, uint256 timestamp);\n    event EvidenceAccessed(string evidenceId, address accessedBy, uint256 timestamp);\n    event UserRegistered(address userAddress, string role, string name);\n    \n    // Modifiers\n    modifier onlyPolice() {\n        require(\n            keccak256(abi.encodePacked(userRoles[msg.sender])) == keccak256(abi.encodePacked(\"Police\")),\n            \"Only police officers can add evidence\"\n        );\n        _;\n    }\n    \n    modifier onlyRegistered() {\n        require(registeredUsers[msg.sender], \"User not registered\");\n        _;\n    }\n    \n    // Register a new user\n    function registerUser(string memory _name, string memory _role) public {\n        require(!registeredUsers[msg.sender], \"User already registered\");\n        require(\n            keccak256(abi.encodePacked(_role)) == keccak256(abi.encodePacked(\"Police\")) || \n            keccak256(abi.encodePacked(_role)) == keccak256(abi.encodePacked(\"Court\")),\n            \"Role must be either Police or Court\"\n        );\n        \n        userRoles[msg.sender] = _role;\n        userNames[msg.sender] = _name;\n        registeredUsers[msg.sender] = true;\n        \n        emit UserRegistered(msg.sender, _role, _name);\n    }\n    \n    // Add new evidence (only police)\n    function addEvidence(\n        string memory _evidenceId,\n        string memory _ipfsHash,\n        string memory _caseNumber,\n        string memory _location,\n        string memory _crimeDescription,\n        string memory _evidenceType\n    ) public onlyPolice onlyRegistered {\n        require(!evidenceRecords[_evidenceId].exists, \"Evidence ID already exists\");\n        \n        Evidence memory newEvidence = Evidence({\n            ipfsHash: _ipfsHash,\n            caseNumber: _caseNumber,\n            location: _location,\n            crimeDescription: _crimeDescription,\n            evidenceType: _evidenceType,\n            officerName: userNames[msg.sender],\n            timestamp: block.timestamp,\n            exists: true\n        });\n        \n        evidenceRecords[_evidenceId] = newEvidence;\n        evidenceIds.push(_evidenceId);\n        \n        emit EvidenceAdded(_evidenceId, _ipfsHash, userNames[msg.sender], block.timestamp);\n    }\n    \n    // Get evidence details\n    function getEvidence(string memory _evidenceId) public onlyRegistered returns (\n        string memory ipfsHash,\n        string memory caseNumber,\n        string memory location,\n        string memory crimeDescription,\n        string memory evidenceType,\n        string memory officerName,\n        uint256 timestamp\n    ) {\n        require(evidenceRecords[_evidenceId].exists, \"Evidence does not exist\");\n        \n        Evidence memory evidence = evidenceRecords[_evidenceId];\n        \n        emit EvidenceAccessed(_evidenceId, msg.sender, block.timestamp);\n        \n        return (\n            evidence.ipfsHash,\n            evidence.caseNumber,\n            evidence.location,\n            evidence.crimeDescription,\n            evidence.evidenceType,\n            evidence.officerName,\n            evidence.timestamp\n        );\n    }\n    \n    // Get all evidence IDs\n    function getEvidenceCount() public view returns (uint256) {\n        return evidenceIds.length;\n    }\n    \n    // Check if user is registered\n    function isUserRegistered(address _userAddress) public view returns (bool) {\n        return registeredUsers[_userAddress];\n    }\n    \n    // Get user role\n    function getUserRole(address _userAddress) public view returns (string memory) {\n        require(registeredUsers[_userAddress], \"User not registered\");\n        return userRoles[_userAddress];\n    }\n    \n    // Get user name\n    function getUserName(address _userAddress) public view returns (string memory) {\n        require(registeredUsers[_userAddress], \"User not registered\");\n        return userNames[_userAddress];\n    }\n}",
  "sourcePath": "C:\\Users\\Sudarshan\\Downloads\\EvidenceManagementSystem-master\\EvidenceManagementSystem-master\\contracts\\EvidenceManagement.sol",
  "compiler": {
    "name": "solc",
    "version": "0.8.13+commit.abaa5c0e.Emscripten.clang"
  },
  "schemaVersion": "3.4.16",
  "updatedAt": "2026-04-18T14:23:26.228Z",
  "networkType": "ethereum",
  "devdoc": {
    "kind": "dev",
    "methods": {},
    "version": 1
  },
  "userdoc": {
    "kind": "user",
    "methods": {},
    "version": 1
  }
}